:020000020000FC
:10000000506C656173652074797065207468652033
:100010006D6178206E756D626572206F66207374F5
:100020006174696F6E733A200000506C656173658E
:10003000207479706520746865206E616D65206F2D
:10004000662053746174696F6E2000004E756D6296
:100050006572206F662073746174696F6E73206DB2
:10006000757374206265206C657373207468616EAB
:100070002031302E0000FF240FEF0DBF01E20EBF34
:1000800000EF00930A010FEF00BB01B9002701BB8D
:1000900002B908E3E4D0FDD018D108E3E0D0F9D0EC
:1000A0000BD108E3DCD0F5D008E3D9D0F2D008E0DA
:1000B000D6D0EFD001E0D3D0ECD006E0D0D0E9D05C
:1000C0000EE0CDD0E6D03324772701E0C8D0E1D0D0
:1000D0003324E0E0F0E0992783D03FEE22273093ED
:1000E0000B010FEF0A95F1F7009109010F700F3026
:1000F00061F031E01127402F432319F40DD00C9407
:100100006D001395330F0C947B00233031F308946A
:10011000331F23950C946F002330F9F0133011F145
:10012000012F000F010F020F03956627F61681F0CD
:10013000E02E8E2D8250E82E882783E08E9DE02CC5
:10014000E10EE3940E2D0F5B00E189D0A2D019C01F
:10015000EE24F394302E005D14C001E4010F04344A
:1001600021F10FC0203039F0213051F001E077D07B
:1001700090D07530D4F00AE200E171D08AD00AC084
:1001800000E3502F8017052F75D083D003C0052FB3
:1001900071D07FD069E17AE582EB8A95F1F77A95A3
:1001A000E1F76A95D1F7000098CF7395713001F0AF
:1001B0006AE063154CF001E052D06BD0EAE2F0E067
:1001C00099270ED08ACFFFCF01E049D062D0ECE46E
:1001D000F0E0992705D03324992777270C94650000
:1001E000903191F01591112341F1012F43D051D05D
:1001F00069E17AE582EB8A95F1F77A95E1F76A95FC
:10020000D1F700009395ECCF9832A9F008E127D000
:1002100040D01591112389F0012F2CD03AD069E1FB
:100220007AE582EB8A95F1F77A95E1F76A95D1F74D
:1002300000009395E9CF9927D3CF02E010D029D0C1
:100240009927983229F004E10AD023D09395F9CF69
:1002500006E005D01ED00FE002D01BD0089501BBF0
:100260000000169A00000000000016980000000030
:100270000000089501BB179A000000000000169AC4
:100280000000000000001698000000000000179811
:1002900008950F93002700BB01BB159A0000169A22
:1002A0000000000000000FB1169807FDF7CF159869
:1002B0000FEF00BB0F9108958F939F939FE08CE900
:1002C0000197F1F79F918F910895F6DFF5DFF4DF45
:1002D000F3DFF2DF08950F931F932F933F934F9314
:1002E0005F936F937F938F939F939F918F917F9154
:0E02F0006F915F914F913F912F911F910F9150
:00000001FF
